S01C00006C696768745F636F6E74726F6C5F73797374656D2E737265638C
S11300000C942A000C9434000C9434000C943400A6
S11300100C9434000C9434000C9434000C9434008C
S11300200C9434000C9434000C9434000C9434007C
S11300300C9434000C9434000C9434000C9434006C
S11300400C9434000C9434000C9434000C9434005C
S11300500C94340011241FBECFE5D8E0DEBFCDBF21
S11300600E94BB000C94D5000C9400008FEF8ABB57
S113007014BA8BB380648BBB08959E9B03C081E04C
S113008090E0089580E090E0089583B380E090E0EC
S1130090089523B330E002C0359527958A95E2F799
S11300A020FD03C081E090E0089580E090E0089591
S11300B09BB321E030E002C0220F331F8A95E2F7A0
S11300C0292B2BBB08959BB321E030E002C0220F03
S11300D0331F8A95E2F7209529232BBB089580E0EE
S11300E090E00E944900892B29F080E090E00E9472
S11300F0580004C080E090E00E94630081E090E03A
S11301000E944900892B29F081E090E00E94580068
S113011004C081E090E00E94630082E090E00E94CD
S11301204900892B29F082E090E00E94580004C025
S113013082E090E00E94630083E090E00E94490026
S1130140892B29F083E090E00E94580004C083E0EA
S113015090E00E94630084E090E00E944900892BB3
S113016029F084E090E00E945800089584E090E033
S11301700E94630008950E9436000E946F000E944E
S11301804500892B21F084E090E00E9458000E94F1
S11301903D00892B29F081E090E00E945800EDCFCA
S11101A081E090E00E946300E8CFF894FFCF66
S9030000FC
