S01C00006C696768745F636F6E74726F6C5F73797374656D2E737265638C
S11300000C942A000C9434000C9434000C943400A6
S11300100C9434000C9434000C9434000C9434008C
S11300200C9434000C9434000C9434000C9434007C
S11300300C9434000C9434000C9434000C9434006C
S11300400C9434000C9434000C9434000C9434005C
S11300500C94340011241FBECFE5D8E0DEBFCDBF21
S11300600E94B4000C94C1000C9400009D9903C03C
S113007081E090E0089580E090E0089523B330E0BB
S113008002C0359527958A95E2F720FD03C081E0EB
S113009090E0089580E090E008958FEF8ABB14BA51
S11300A008959BB321E030E002C0220F331F8A95EC
S11300B0E2F7292B2BBB08959BB321E030E002C06B
S11300C0220F331F8A95E2F7209529232BBB08952D
S11300D080E090E00E943E00892B29F080E090E0CF
S11300E00E94510004C080E090E00E945C0081E026
S11300F090E00E943E00892B29F081E090E00E946C
S1130100510004C081E090E00E945C0082E090E035
S11301100E943E00892B29F082E090E00E94510069
S113012004C082E090E00E945C0083E090E00E94C2
S11301303E00892B29F083E090E00E94510004C026
S113014083E090E00E945C0084E090E00E943E0026
S1130150892B29F084E090E00E945100089584E006
S113016090E00E945C0008950E944D000E94680087
S11301700E943600892BD1F384E090E00E94510064
S1090180F5CFF894FFCF57
S9030000FC
