:100000000C942A000C943C000C943C000C943C0092
:100010000C943C000C943C000C943C000C943C0070
:100020000C943C000C943C000C943C000C943C0060
:100030000C943C000C94AD010C943C000C943C00DE
:100040000C943C000C943C000C943C000C943C0040
:100050000C943C0011241FBECFE5D8E0DEBFCDBF1D
:1000600020E0A0E6B0E001C01D92A23EB207E1F799
:100070000E940E010C9434020C94000048B321E05D
:1000800030E0F90102C0EE0FFF1F8A95E2F7CF01C1
:10009000842B88BB88B302C0220F331F6A95E2F716
:1000A0002095282328BB089598B321E030E0A901CA
:1000B00002C0440F551F6A95E2F7492B48BB98B31D
:1000C00002C0220F331F8A95E2F72095292328BB0F
:1000D00008951F93CF93DF93C0E0D0E0C038D105DF
:1000E00034F55F9BFECF1CB1812F90E00E94F70199
:1000F000892B71F0E0916000F0916100EE59FF4FA3
:100100001082109261001092600082E690E00FC0B1
:100110008091600090916100FC01EE59FF4F1083C7
:10012000019690936100809360002196D7CFDF9174
:10013000CF911F9108958FEF8ABB14BA8FE087BBD0
:1001400088B3806488BB88B3806888BB87E689B938
:1001500087E080BD88E98AB9789408959D9903C0A5
:1001600081E090E0089580E090E008955D9BFECFEF
:100170002FEF31EE94E0215030409040E1F700C085
:1001800000008CB90895CF93DF93EC018881882318
:1001900021F00E94B6002196F9CFDF91CF9108950A
:1001A0009BB321E030E002C0220F331F8A95E2F7B3
:1001B000292B2BBB08950E946900FC0180818133AB
:1001C00029F480E090E00E94D0000895823329F461
:1001D00081E090E00E94D0000895833329F482E00A
:1001E00090E00E94D0000895843329F483E090E0E9
:1001F0000E94D0000895853321F484E090E00E94AD
:10020000D00008959BB321E030E002C0220F331FDD
:100210008A95E2F7209529232BBB08950E949B0025
:10022000B69906C061E070E080E090E00E943E0078
:10023000B79906C061E070E080E090E00E94540051
:100240000E94AE00892B29F084E090E00E94D0004B
:10025000E7CF84E090E00E940201E2CF0E946900B3
:10026000FC018081813329F480E090E00E9402014A
:100270000895823329F481E090E00E9402010895FC
:10028000833329F482E090E00E94020108958433D0
:1002900029F483E090E00E9402010895853321F45F
:1002A00084E090E00E9402010895FC01019000208A
:1002B000E9F73197AF01481B590B4F5F5F4F60E083
:1002C00070E00E9413020895FC0101900020E9F7FC
:1002D0003197AF01481B590B4F5F5F4F60E870E0EB
:1002E0000E94130208950E9469000E9464010E9406
:1002F00069000E945501089544E150E060E070E01B
:100300000E940302089544E150E060E870E00E941A
:1003100003020895CF93DF93CDB7DEB7A8970FB64A
:10032000F894DEBF0FBECDBFCE0101960E947C01C6
:10033000CE0145960E948301CE0145960E94C300DE
:10034000CE0101960E94C300A8960FB6F894DEBFB6
:100350000FBECDBFDF91CF9108951F920F920FB6C0
:100360000F9211242F933F934F935F936F937F933B
:100370008F939F93AF93BF93EF93FF9385E090E0AC
:100380000E94D0008CB18C3449F018F4863479F096
:1003900010C08F3449F0823521F00BC00E948A01D1
:1003A00008C00E94730105C00E94DB0002C00E94C9
:1003B0002E012FEF81EE94E0215080409040E1F734
:1003C00000C0000085E090E00E940201FF91EF91E3
:1003D000BF91AF919F918F917F916F915F914F915D
:1003E0003F912F910F900FBE0F901F901895911174
:1003F0000C940002803219F089508550C8F7089596
:10040000992788270895DC01CB01FC01E199FECFF3
:1004100006C0FFBBEEBBE09A31960DB20D92415083
:100420005040B8F70895DC01A40FB51F415050406B
:1004300048F0CB01840F951F2E910E942402415059
:100440005040D0F70895262FE199FECF9FBB8EBB79
:10045000E09A01970DB2021631F02DBB0FB6F89459
:0C046000E29AE19A0FBE0895F894FFCFD5
:00000001FF
