:100000000C942A000C9447000C9447000C94470071
:100010000C9447000C9447000C9447000C94470044
:100020000C9447000C9447000C9447000C94470034
:100030000C9447000C94F9010C9447000C94470071
:100040000C9447000C9447000C9447000C94470014
:100050000C94470011241FBECFE5D8E0DEBFCDBF12
:1000600010E0A0E6B0E0E4E0F5E002C005900D92FB
:10007000A836B107D9F720E0A8E6B0E001C01D928C
:10008000AA3EB207E1F70E94C7000C9480020C94CC
:1000900000001F93CF93DF93C0E0D0E0C038D105BC
:1000A00034F55F9BFECF1CB1812F90E00E943A0295
:1000B000892B71F0E0916800F0916900E659FF4FDB
:1000C000108210926900109268008AE690E00FC0DA
:1000D0008091680090916900FC01E659FF4F108300
:1000E000019690936900809368002196D7CFDF91A5
:1000F000CF911F9108958FEF87BB8ABB14BA8BB342
:1001000080648BBB87E689B987E080BD88E98AB9BE
:10011000789408959E9B03C081E090E0089580E06C
:1001200090E0089583B380E090E008955D9BFECF5A
:100130002FEF31EE94E0215030409040E1F700C0C5
:1001400000008CB90895CF93DF93EC018881882358
:1001500021F00E9496002196F9CFDF91CF9108956A
:100160009BB321E030E002C0220F331F8A95E2F7F3
:10017000292B2BBB08959BB321E030E002C0220F56
:10018000331F8A95E2F7209529232BBB08950E94FF
:100190007B000E949200892B29F084E090E00E946D
:1001A000B00004C084E090E00E94BB000E948A007E
:1001B000892B29F081E090E00E94B000EACF81E035
:1001C00090E00E94BB00E5CF0E944900FC018081C5
:1001D000813329F480E090E00E94BB0008958233CF
:1001E00029F481E090E00E94BB000895833329F454
:1001F00082E090E00E94BB000895843329F483E0FC
:1002000090E00E94BB000895853321F484E090E0E3
:100210000E94BB0008950E944900FC018081813347
:1002200091F480E090E00E94B000FFEF21EE84E0C6
:10023000F15020408040E1F700C0000080E090E0F5
:100240000E94BB000895823391F481E090E00E9407
:10025000B0009FEFE1EEF4E09150E040F040E1F7B4
:1002600000C0000081E090E00E94BB00089583334D
:1002700091F482E090E00E94B0002FEF81EE94E0D4
:10028000215080409040E1F700C0000082E090E003
:100290000E94BB000895843391F483E090E00E94B3
:1002A000B000EFEFF1EE24E0E150F0402040E1F744
:1002B00000C0000083E090E00E94BB0008958533F9
:1002C00089F484E090E00E94B0008FEF91EEE4E0CA
:1002D00081509040E040E1F700C0000084E090E0F1
:1002E0000E94BB0008957894FC0101900020E9F77A
:1002F0003197AF01481B590B4F5F5F4F60E070E0D3
:100300000E945F02089544E150E060E070E00E94C6
:100310004F0208950F931F93CF93DF93CDB7DEB7AE
:10032000C058D1090FB6F894DEBF0FBECDBF0E94F2
:1003300049008C0160E670E00E944302892B69F459
:1003400080E090E00E94B0002FEF89E698E1215014
:1003500080409040E1F700C00000CE0101960E946D
:10036000830160E670E0CE0101960E944302892B72
:1003700021F480E090E00E94BB00C8010E9473015C
:10038000C058DF4F0FB6F894DEBF0FBECDBFDF9170
:10039000CF911F910F91089544E150E060E870E023
:1003A0000E944F020895CF93DF93CDB7DEB7A89791
:1003B0000FB6F894DEBF0FBECDBFCE0101960E94EE
:1003C0008301CE0145960E94CC018AB188608AB92A
:1003D000CE0101960E94A300CE0145960E94A30083
:1003E000A8960FB6F894DEBF0FBECDBFDF91CF91B8
:1003F00008951F920F920FB60F9211242F933F93DF
:100400004F935F936F937F938F939F93AF93BF931C
:10041000EF93FF9384E090E00E94B0008CB18F34A2
:1004200091F018F48C3431F010C0823531F08335FE
:1004300039F00BC00E94D30108C00E948A0105C098
:100440000E940B0102C00E94E40084E090E00E9440
:10045000BB00FF91EF91BF91AF919F918F917F91E1
:100460006F915F914F913F912F910F900FBE0F9021
:100470001F90189591110C944C02803219F08950FC
:100480008550C8F70895FB01DC018D91019080191A
:100490000110D9F3990B0895992788270895DC0155
:1004A000CB01FC01E199FECF06C0FFBBEEBBE09A99
:1004B00031960DB20D9241505040B8F70895DC01CD
:1004C000A40FB51F4150504048F0CB01840F951F39
:1004D0002E910E94700241505040D0F70895262F6F
:1004E000E199FECF9FBB8EBBE09A01970DB2021639
:1004F00031F02DBB0FB6F894E29AE19A0FBE089541
:04050000F894FFCF9D
:08050400617567757374000056
:00000001FF
