:100000000C942A000C943C000C943C000C943C0092
:100010000C943C000C943C000C943C000C943C0070
:100020000C943C000C943C000C943C000C943C0060
:100030000C943C000C9471020C943C000C943C0019
:100040000C943C000C943C000C943C000C943C0040
:100050000C943C0011241FBECFE5D8E0DEBFCDBF1D
:1000600024E0A0E6B0E001C01D92AA34B207E1F797
:100070000E9411010C94F8020C94000011B888E45D
:1000800080B984E086BF089584EA86BF06B607FE7D
:10009000FDCF089583B984E886BF06B607FEFDCF7D
:1000A000089520E4829FC0011124846886BF06B6AB
:1000B00007FEFDCF83B1089584E986BF80E090E01C
:1000C0008436910514F40196FBCF08950E943E00FA
:1000D0000E94440080ED0E944A0087E00E944A008E
:1000E00080E00E944A000E945C0008951F93CF9315
:1000F000DF93C82FD62F142F0E94440080ED0E945A
:100100004A0080E00E944A00812F0E944A008D2F01
:100110000E944A008C2F0E944A000E945C00DF91DE
:10012000CF911F910895EF92FF920F931F93CF935A
:10013000DF93EC018B017A010E94440080ED0E9464
:100140004A0080E00E944A000E945C000E94440035
:1001500081ED0E944A0081E00E945100F7018083F6
:1001600081E00E945100F801808380E00E945100EC
:1001700088830E945C00DF91CF911F910F91FF90C7
:10018000EF9008958FEF8ABB8FE087BB88B38064C0
:1001900088BB88B3806888BB85B3816085BB85B325
:1001A000826085BB85B3846085BB85B3886085BB71
:1001B00085B3806185BB81B3806181BB87E689B9E6
:1001C00087E080BD88E98AB978940E94660040E59E
:1001D00069E281E20E94760008955D9BFECF2FEFD9
:1001E00031EE94E0215030409040E1F700C0000033
:1001F0008CB908959BB321E030E002C0220F331F79
:100200008A95E2F7292B2BBB08959BB321E030E0C0
:1002100002C0220F331F8A95E2F7209529232BBBBA
:100220000895CF93DF9300D01F92CDB7DEB70E9421
:10023000C200AE014D5F5F4FBE016E5F7F4FCE01CA
:1002400001960E949300898190E0959587959595F8
:1002500087959595879595958795EFE9FFE0319777
:10026000F1F700C0000099819F702A8130E0359538
:100270002795359527953595279535952795EFE958
:10028000FFE03197F1F700C000003A813F704B81E9
:1002900050E05595479555954795559547955595F2
:1002A0004795EFE9FFE03197F1F700C000005B816F
:1002B0005F70823079F4913069F4233059F4311150
:1002C00009C0411107C0511105C080E090E00E94B3
:1002D000FA0004C080E090E00E940501FFEF21EEEB
:1002E00084E0F15020408040E1F700C00000A1CF41
:1002F0001F93CF93DF93C0E0D0E0C038D10574F5F1
:100300005F9BFECF1CB186E090E00E94FA00812F37
:1003100090E00E94BB02892B91F0E0916000F09187
:100320006100EE59FF4F1082109261001092600040
:1003300086E090E00E94050182E690E013C0809183
:10034000600090916100FC01EE59FF4F108301960F
:1003500090936100809360002196CFCF86E090E07B
:100360000E940501DF91CF911F9108950E947801AD
:10037000FC018081813329F480E090E00E94FA0042
:100380000895823329F481E090E00E94FA000895F4
:10039000833329F482E090E00E94FA0008958433C8
:1003A00029F483E090E00E94FA000895853321F457
:1003B00084E090E00E94FA0008950E947801FC0118
:1003C0008081813329F480E090E00E940501089546
:1003D000823329F481E090E00E940501089583337F
:1003E00029F482E090E00E9405010895843329F405
:1003F00083E090E00E9405010895853321F484E0B4
:1004000090E00E9405010895CF93DF93EC0188816D
:10041000882361F087E090E00E94FA0089910E94B1
:10042000ED0087E090E00E940501F1CFDF91CF91D0
:100430000895FC0101900020E9F73197AF01481BB6
:10044000590B4F5F5F4F60E070E00E94D702089544
:10045000FC0101900020E9F73197AF01481B590BCF
:100460004F5F5F4F60E870E00E94D70208950E94DE
:1004700078010E9428020E9478010E9419020895C2
:1004800044E150E060E070E00E94C702089544E15A
:1004900050E060E870E00E94C7020895CF93DF93B8
:1004A000CDB7DEB7A8970FB6F894DEBF0FBECDBFAD
:1004B000CE0101960E944002CE0145960E9447025D
:1004C000CE0145960E940402CE0101960E940402CC
:1004D000A8960FB6F894DEBF0FBECDBFDF91CF91C7
:1004E00008951F920F920FB60F9211242F933F93EE
:1004F0004F935F936F937F938F939F93AF93BF932C
:10050000EF93FF9385E090E00E94FA008CB18C3469
:1005100049F018F4863479F010C08F3449F08235F0
:1005200021F00BC00E944E0208C00E94370205C095
:100530000E94B60102C00E94DD012FEF81EE94E01F
:10054000215080409040E1F700C0000085E090E03D
:100550000E940501FF91EF91BF91AF919F918F9103
:100560007F916F915F914F913F912F910F900FBEAF
:100570000F901F90189591110C94C402803219F0BD
:1005800089508550C8F70895992788270895DC0178
:10059000CB01FC01E199FECF06C0FFBBEEBBE09AA8
:1005A00031960DB20D9241505040B8F70895DC01DC
:1005B000A40FB51F4150504048F0CB01840F951F48
:1005C0002E910E94E80241505040D0F70895262F06
:1005D000E199FECF9FBB8EBBE09A01970DB2021648
:1005E00031F02DBB0FB6F894E29AE19A0FBE089550
:0405F000F894FFCFAD
:00000001FF
