S01C00006C696768745F636F6E74726F6C5F73797374656D2E737265638C
S11300000C942A000C9434000C9434000C943400A6
S11300100C9434000C9434000C9434000C9434008C
S11300200C9434000C9434000C9434000C9434007C
S11300300C9434000C9434000C9434000C9434006C
S11300400C9434000C9434000C9434000C9434005C
S11300500C94340011241FBECFE5D8E0DEBFCDBF21
S11300600E948E000C9493000C9400008FEF8ABBC6
S113007014BA08959BB321E030E002C0220F331F6D
S11300808A95E2F7292B2BBB08959BB321E030E03E
S113009002C0220F331F8A95E2F7209529232BBB38
S11300A0089583B3811105C080E090E00E943A0076
S11300B004C080E090E00E94450083B3811105C034
S11300C081E090E00E943A0004C081E090E00E9448
S11300D0450083B3811105C082E090E00E943A009C
S11300E004C082E090E00E94450083B3811105C002
S11300F083E090E00E943A0004C083E090E00E9414
S1130100450083B3811105C084E090E00E943A0069
S1130110089584E090E00E94450008950E9436000E
S10D01200E945100FDCFF894FFCFB8
S9030000FC
