S01C00006C696768745F636F6E74726F6C5F73797374656D2E737265638C
S11300000C942A000C9434000C9434000C943400A6
S11300100C9434000C9434000C9434000C9434008C
S11300200C9434000C9434000C9434000C9434007C
S11300300C9434000C9434000C9434000C9434006C
S11300400C9434000C9434000C9434000C9434005C
S11300500C94340011241FBECFE5D8E0DEBFCDBF21
S11300600E9451000C9465000C9400008FEF8ABB31
S113007014BA08959BB321E030E002C0220F331F6D
S11300808A95E2F7292B2BBB08959BB321E030E03E
S113009002C0220F331F8A95E2F7209529232BBB38
S11300A008950E94360080E090E00E943A002FEF0D
S11300B089E698E1215080409040E1F700C00000BB
S11100C080E090E00E944500EECFF894FFCF60
S9030000FC
